:020000040000FA
:100000000C9463000C948B000C948B000C9499045A
:100010000C9499040C9499040C948B000C948B0010
:100020000C948B000C948B000C948B000C948B0024
:100030000C948B000C948B000C948B000C948B0014
:100040000C944F040C948B000C941D040C94F70337
:100050000C948B000C948B000C948B000C948B00F4
:100060000C948B000C948B000000000024002700EF
:100070002A0000000008000201000003040700003D
:1000800000000000000000000000230026002900FE
:1000900000000000250028002B00040404040404D0
:1000A0000404020202020202030303030303010227
:1000B00004081020408001020408102001020408F6
:1000C00010201105990B11241FBECFEFD8E0DEBF21
:1000D000CDBF25E0A8E9B2E001C01D92A33EB20762
:1000E000E1F712E0A0E0B1E0E0E7F8E102C005903E
:1000F0000D92A839B107D9F710E0C2E6D0E004C0EC
:100100002197FE010E94110CC136D107C9F70E9448
:10011000DC050C942B0C0C940000AF92BF92CF9294
:10012000DF92EF92FF920F931F93CF93DF936C01B7
:100130007B018B01040F151FEB015E01AE18BF0898
:10014000C017D10759F06991D601ED91FC9101904A
:10015000F081E02DC6010995892B79F7C501DF9162
:10016000CF911F910F91FF90EF90DF90CF90BF90B4
:10017000AF9008950895FC01538D448D252F30E0F4
:10018000842F90E0821B930B541710F0CF960895A4
:1001900001970895FC01918D828D981761F0A28DD1
:1001A000AE0FBF2FB11D5D968C91928D9F5F9F7397
:1001B000928F90E008958FEF9FEF0895FC01918D4D
:1001C000828D981731F0828DE80FF11D858D90E0BA
:1001D00008958FEF9FEF0895FC01918D228D892F57
:1001E00090E0805C9F4F821B91098F73992708953F
:1001F00081EE94E00E94EC0021E0892B09F420E0DC
:10020000822F089580E090E0892B29F00E94F80069
:1002100081110C9400000895FC01A48DA80FB92F42
:10022000B11DA35ABF4F2C91848D90E001968F731E
:100230009927848FA689B7892C93A089B1898C913D
:10024000837080648C93938D848D981306C002888C
:10025000F389E02D80818F7D80830895EF92FF9256
:100260000F931F93CF93DF93EC0181E0888F9B8DD9
:100270008C8D98131AC0E889F989808185FF15C093
:100280009FB7F894EE89FF896083E889F9898081B6
:100290008370806480839FBF81E090E0DF91CF9185
:1002A0001F910F91FF90EF900895F62E0B8D10E0A7
:1002B0000F5F1F4F0F731127E02E8C8D8E110CC016
:1002C0000FB607FCFACFE889F989808185FFF5CF61
:1002D000CE010E940C01F1CFEB8DEC0FFD2FF11D33
:1002E000E35AFF4FF0829FB7F8940B8FEA89FB899E
:1002F00080818062CFCFCF93DF93EC01888D8823FC
:10030000B9F0AA89BB89E889F9898C9185FD03C078
:10031000808186FD0DC00FB607FCF7CF8C9185FF5D
:10032000F2CF808185FFEDCFCE010E940C01E9CF95
:10033000DF91CF91089590E0FC01EE58FF4F24919A
:10034000FC01E255FF4F3491FC01E656FF4FE4916A
:10035000EE23C9F0222339F0233001F1A8F4213033
:1003600019F1223029F1F0E0EE0FFF1FE057FF4FA7
:10037000A591B4918FB7F894EC91611126C0309596
:100380003E233C938FBF08952730A9F02830C9F051
:10039000243049F7809180008F7D03C080918000D8
:1003A0008F7780938000DFCF84B58F7784BDDBCFDC
:1003B00084B58F7DFBCF8091B0008F778093B000A4
:1003C000D2CF8091B0008F7DF9CF3E2BDACFCF9383
:1003D000DF9390E0FC01E255FF4F249186569F4F3A
:1003E000FC0184918823D1F090E0880F991FFC01D3
:1003F000E859FF4FA591B491FC01E057FF4FC5911B
:10040000D49161110EC09FB7F8948C91E22FE095C2
:100410008E238C932881E223E8839FBFDF91CF91C5
:1004200008958FB7F894EC91E22BEC938FBFF6CF41
:100430003FB7F8948091DD029091DE02A091DF0237
:10044000B091E00226B5A89B05C02F3F19F0019698
:10045000A11DB11D3FBFBA2FA92F982F8827BC011E
:10046000CD01620F711D811D911D42E0660F771F46
:10047000881F991F4A95D1F708952FB7F894609176
:10048000D9027091DA028091DB029091DC022FBFD9
:1004900008952091E3023091E4022817390771F49E
:1004A0009091E1028091E202981741F0E091E1021F
:1004B000F0E0E856FD4F808190E008958FEF9FEFC8
:1004C0000895EF92FF920F931F93CF93DF93DC0178
:1004D0005C96ED90FC905D97E114F10479F481E075
:1004E00090E013969C938E93129790E080E0DF91BA
:1004F000CF911F910F91FF90EF9008955196ED913C
:10050000FC91529750968C915097982F90950FB7D9
:100510005E962C915E97122F127021FD6095F894D3
:100520002081112319F1282B2083E7012197F1F76E
:1005300028E0462F50E0308160FF1AC0382B30830E
:10054000E7012197F1F7BA0175956795215089F771
:10055000112381F08081892380830FBF5C968D9168
:100560009C910197F1F781E090E0C1CF2923DCCF86
:100570003923E5CF9081892BEFCF2091E302309191
:10058000E4022817390771F48091E2022091E10218
:1005900090E0805C9F4F821B910960E470E00E94B4
:1005A000FD0B089590E080E008952091E3023091E2
:1005B000E40228173907B9F49091E1028091E20230
:1005C000981789F0E091E102F0E0E856FD4F808154
:1005D0002091E10230E02F5F3F4F2F7333272093AC
:1005E000E10290E008958FEF9FEF089590E080E0A2
:1005F0000895FB019081892790E1899F9001112442
:10060000822790E0382F2227AC0163E0440F551F6A
:100610006A95E1F724273527418150E024273527C3
:1006200074E0959587957A95E1F7822793279183D2
:1006300080830895FC0101900020E9F73197AF0114
:10064000481B590BBC0181EE94E00C948D008F92F5
:100650009F92AF92BF920F931F93CF93DF93CDB72B
:10066000DEB7A1970FB6F894DEBF0FBECDBF19A2BB
:10067000423008F44AE08E010F5D1F4F842E912C0A
:10068000B12CA12CA50194010E94DB0BE62FB9012E
:10069000CA01EA30F4F4E05DD801EE938D01232B1A
:1006A000242B252B79F790E080E0109719F0CD01ED
:1006B0000E941A03A1960FB6F894DEBF0FBECDBFFD
:1006C000DF91CF911F910F91BF90AF909F908F902E
:1006D0000895E95CE1CFCF92DF92EF92FF92CF9342
:1006E000DF936B017C01F7FE1FC06DE281EE94E0A9
:1006F0000E942E01EC0166277727CB016C197D093A
:100700008E099F094AE00E942703C80FD91F82E380
:1007100092E00E941A038C0F9D1FDF91CF91FF90F2
:10072000EF90DF90CF9008954AE00E942703EC01FC
:10073000EECFCF93DF930E941A03EC0182E392E0A5
:100740000E941A038C0F9D1FDF91CF9108950C9486
:100750001A03EF92FF920F931F93CF93DF9300D072
:1007600000D0CDB7DEB781EE94E00E94CA0081EEE2
:1007700094E00E94CA008E010F5F1F4F78018A33F8
:1007800041F0F80181938F0181EE94E00E94CA004C
:10079000F6CFC7010E94B50B182F81EE94E00E949E
:1007A000CA008053990B8230910520F4682F812F65
:1007B0000E949B0181EE94E00E94CA008A3011F0F1
:1007C0008D30C1F781EE94E00E94DE008A3021F482
:1007D00081EE94E00E94CA000F900F900F900F904E
:1007E000DF91CF911F910F91FF90EF9008951F928D
:1007F0000F920FB60F9211242F933F934F935F9355
:100800006F937F938F939F93AF93BF93EF93FF93D8
:1008100081EE94E00E940C01FF91EF91BF91AF91A6
:100820009F918F917F916F915F914F913F912F9108
:100830000F900FBE0F901F9018951F920F920FB63A
:100840000F9211242F938F939F93EF93FF93E09137
:10085000F104F091F2048081E091F704F091F80442
:1008600082FD1BC090818091FA048F5F8F7320916D
:10087000FB04821741F0E091FA04F0E0EF51FB4FE6
:10088000958F8093FA04FF91EF919F918F912F9113
:100890000F900FBE0F901F9018958081F4CF1F927C
:1008A0000F920FB60F9211242F933F938F939F9324
:1008B000AF93BF938091D9029091DA02A091DB02AD
:1008C000B091DC023091D80223E0230F2D3758F588
:1008D0000196A11DB11D2093D8028093D902909357
:1008E000DA02A093DB02B093DC028091DD029091EA
:1008F000DE02A091DF02B091E0020196A11DB11DC0
:100900008093DD029093DE02A093DF02B093E002B9
:10091000BF91AF919F918F913F912F910F900FBEFB
:100920000F901F90189526E8230F0296A11DB11D68
:10093000D2CF1F920F920FB60F9211242F933F9395
:100940004F935F936F937F938F939F93AF93BF93D7
:10095000EF93FF93E091E302F091E402309749F0C6
:10096000A685B7858585968D91FF14C09C918923B6
:10097000A1F4FF91EF91BF91AF919F918F917F91E2
:100980006F915F914F913F912F910F900FBE0F90FC
:100990001F9018959C91892361F7A389B4899C9134
:1009A0008589809589238C93868997890197F1F7AA
:1009B000608D718DA685B785558538E020E0CB0127
:1009C0000197F1F7822F90E095958795282F4C910C
:1009D000452309F02068315091F7868D81FD2095DF
:1009E0008091E20290E001968F7399273091E102A5
:1009F000381799F0A091E202B0E0A856BD4F2C93B1
:100A00008093E202828D938D0197F1F7A389B489D7
:100A10008C919589892B8C93ACCF868D8160868F44
:100A2000F1CF1092E4041092E30488EE93E0A0E08A
:100A3000B0E08093E5049093E604A093E704B093BC
:100A4000E80422E132E03093E2042093E10425EC53
:100A500030E03093EE042093ED0424EC30E030934A
:100A6000F0042093EF0420EC30E03093F204209364
:100A7000F10421EC30E03093F4042093F30422ECF1
:100A800030E03093F6042093F50426EC30E0309308
:100A9000F8042093F7041092FA041092FB041092C9
:100AA000FC041092FD0410928405109285051092AA
:100AB000860510928705109288051092890510927C
:100AC0008A0510928B0510928C0510928D0510925C
:100AD0008E0510928F05109290051092910510923C
:100AE0009205109293051092C7051092C605809347
:100AF000C8059093C905A093CA05B093CB0584E2BD
:100B000092E09093C5058093C4051092DB05109286
:100B1000DA051092DD051092DC051092DF051092C7
:100B2000DE051092E1051092E0056091E2056E7F0E
:100B30006D7F6093E2056695617081E068278AE0C9
:100B40000E949B0161E08AE00E94E701E8EBF0E08F
:100B5000E491E093D405E4EAF0E0E491F0E0EE0FF4
:100B6000FF1FE057FF4F859194919093D605809396
:100B7000D50560E089E00E94E7018091E20581FDF2
:100B800004C061E089E00E949B0189E08093D00568
:100B9000E7EBF0E0E491E093D105E3EAF0E0E491E3
:100BA000F0E0EE0FFF1FEA57FF4F8591949190936D
:100BB000D3058093D2050895CF93DF93CDB7DEB7E9
:100BC000CF5CD1400FB6F894DEBF0FBECDBF789496
:100BD00084B5826084BD84B5816084BD85B5826042
:100BE00085BD85B5816085BD80916E0081608093F3
:100BF0006E0010928100809181008260809381005C
:100C0000809181008160809381008091800081606B
:100C1000809380008091B10084608093B1008091C6
:100C2000B00081608093B00080917A0084608093EE
:100C30007A0080917A00826080937A0080917A00B5
:100C4000816080937A0080917A00806880937A0036
:100C50001092C1001092C0051092C1051092C205F9
:100C60001092C305109280051092810510928205A2
:100C7000109283050E943D024B015C017C016B01D7
:100C800028EBC20E2BE0D21EE11CF11C0E943D029B
:100C9000681579058A059B0528F0C616D706E8066B
:100CA000F906A0F70E9418024B015C0118EEC12E54
:100CB00013E0D12EE12CF12C0E9418026819790959
:100CC0008A099B09683E734081059105A8F331E0CC
:100CD000C31AD108E108F10848EE840E43E0941EDF
:100CE000A11CB11CC114D104E104F10429F7E09165
:100CF000F104F091F20482E08083E091ED04F09140
:100D0000EE041082E091EF04F091F00480E1808322
:100D10001092F904E091F504F091F60486E08083E6
:100D2000E091F304F091F404808180618083E0918C
:100D3000F304F091F404808188608083E091F304EF
:100D4000F091F404808180688083E091F304F09155
:100D5000F40480818F7D80830E943D026093800532
:100D600070938105809382059093830585E392E0DB
:100D70000E94A7030E943D024B015C017C016B01B4
:100D80008AE0C80ED11CE11CF11C0E943D026815CE
:100D900079058A059B0528F0C616D706E806F906E8
:100DA000A0F781E0809394050E943D026093800546
:100DB00070938105809382059093830586E492E089
:100DC0000E94A70360E089E00E94E70161E08AE0F9
:100DD0000E94E701E091F104F091F20482E0808347
:100DE000E091F104F091F2041082E091ED04F091B1
:100DF000EE041082E091EF04F091F00480E1808332
:100E00001092F904E091F504F091F60486E08083F5
:100E1000E091F304F091F404808180618083E0919B
:100E2000F304F091F404808188608083E091F304FE
:100E3000F091F404808180688083E091F304F09164
:100E4000F40480818F7D80831092DF051092DE058F
:100E50001092DD051092DC051092DB051092DA0588
:100E600082E490E09093E1058093E0059091D005B5
:100E7000963108F047C02FE030E03093DB05209337
:100E8000DA0520E430E03093DD052093DC0527E22D
:100E900030E03093DF052093DE052091680084E088
:100EA000983048F031E09E3008F430E081E001C035
:100EB000880F3A95EAF7822B809368002DE630E0A0
:100EC000983050F02BE630E09E3030F02CE630E0E9
:100ED000963110F030E020E03093D8052093D7050C
:100EE000292F30E0983008F051C181E001C0880F0F
:100EF0009A95EAF78093D9058091E0059091E105F4
:100F00000197F1F78091DE059091DF05892B49F17A
:100F1000E091E302F091E40295E0E43CF90709F185
:100F2000309739F0A389B4899C918589809589236C
:100F30008C938091E2058E7F8093E2051092E2020D
:100F40001092E10284EC95E09093E4028093E30236
:100F5000E091D705F091D80580819091D905892B32
:100F600080838DE492E00E949903A1E7B0E0AC0F8A
:100F7000BD1F1296C653DE4FB983A883CA5CD14009
:100F8000C0900201D0900301E0900401F0900501AF
:100F9000C453DE4FC882D982EA82FB82CC5CD14046
:100FA0000E943D02672B682B692B09F4FCC00E944C
:100FB0003D020091DD041091DE042091DF043091A8
:100FC000E004601771078207930708F449C1009194
:100FD000DD041091DE042091DF043091E0046B0108
:100FE0007C01C01AD10AE20AF30A97018601083E81
:100FF00013402105310508F4DEC06093DD047093D1
:10100000DE048093DF049093E00484EF91E0A0E09D
:10101000B0E080938C0590938D05A0938E05B093DE
:101020008F051092900510929105109292051092E2
:1010300093058091840590918505A0918605B091D6
:1010400087058093880590938905A0938A05B093BE
:101050008B050E943D026093840570938505809303
:1010600086059093870581EE94E00E94DE00843629
:1010700011F40E94A9030E943D02609380057093C1
:10108000810580938205909383050E943D026B0148
:101090007C018FE592E00E94A7034AE061E070E0E6
:1010A00080E090E00E94270386E692E00E94A7037A
:1010B0004AE0C701B6010E94270388E692E00E9439
:1010C000A7038091840590918505A0918605B09134
:1010D0008705A7019601281B390B4A0B5B0BCA0138
:1010E000B9014AE00E94270388E692E00E94A70324
:1010F00060918405709185058091860590918705A2
:10110000009188051091890520918A0530918B0501
:10111000601B710B820B930B4AE00E9427038AE647
:1011200092E00E94A7030E943D024AE00E9427032A
:101130008CE692E00E9499030E943D024B015C0103
:101140007C016B0135E0C30ED11CE11CF11C0E9437
:101150003D02681579058A059B0528F0C616D70655
:10116000E806F906A0F781EE94E00E94DE008436DE
:1011700011F40E94A9030E943D02609384057093BC
:101180008505809386059093870515C09E3040F4B1
:101190002850310981E001C0880F2A95EAF7AACECC
:1011A0002E503109F7CF0E943D0262307105810552
:1011B000910508F0FCCEED961CAE1DAE1EAE1FAE26
:1011C000ED9781E0EE968FAFEE9798E0EF969FAFA8
:1011D000EF97C158DF4F1882CF57D04093E0C058E7
:1011E000DF4F9883C058D040CF57DF4F9883C15806
:1011F000D040E9961FAEE9979EEFE4969FAFE49743
:1012000099E0E5969FAFE597E7968FAFE797E89669
:101210001FAEE8978091EE02E6968FAFE6978F5F5C
:101220008093EE028FEF9FEF9A838983B1E7EB2ED5
:10123000F12CEC0EFD1E43E0E40EF11C01E710E082
:101240000C0F1D1F0F5E1F4FBE016F5F7F4FE0161B
:10125000F10679F0D7018D917D010E94F902F4CF5A
:101260006093DD047093DE048093DF049093E004C8
:10127000AECE82E30E94F90299818A81CE57DF4F78
:101280009883C258D040CD57DF4F8883C358D04091
:1012900081E1C653DE4FE881F981CA5CD140DE01AD
:1012A000A35BBE4F01900D928A95E1F70E943D022B
:1012B0000091D9041091DA042091DB043091DC0410
:1012C0006B017C01C01AD10AE20AF30A9701860178
:1012D000083E13402105310508F4B9C06093D904D4
:1012E0007093DA048093DB049093DC0441E150E0D6
:1012F000BE01635B7E4F84EC95E00E948D0080917F
:1013000000019091010101969093010180930001E9
:10131000CC970CF49CC083E792E00E9499038091E3
:10132000E5029091E60201969093E6028093E50231
:10133000C453DE4FC880D980EA80FB80CC5CD140AA
:10134000CF53DE4FC882D982EA82FB82C15CD14092
:1013500088E0E6E0F1E0DE01A754BE4F01900D9277
:101360008A95E1F78E0107541E4F9E012F533E4F81
:101370002901680138E0C30ED11C7724739472E40C
:10138000672EE2E03E2EF8EC2F2E88248A94982CCB
:101390005E014FE0A40EB11CD8012D913D918D014D
:1013A000F20181912F013A8729877B861C868D87E0
:1013B0007E866886FEEFFB8366E0E62EEC823E8248
:1013C0002F828091EE028D838F5F8093EE02CB534C
:1013D000DE4F99828882C55CD1407E0124E0E20E16
:1013E000F11CBE016B537E4FAE14BF0431F0D70128
:1013F0008D917D010E94F902F4CF84E90E94F902E7
:10140000CB53DE4F9881C55CD140CA53DE4F8881F3
:10141000C65CD1409F87888B8EE0FE013396DE014B
:10142000AF51BF4F01900D928A95E1F74EE050E029
:10143000BE016F517F4F84EC95E00E948D000C152A
:101440001D0509F0A9CF10920101109200018091B1
:10145000D7049091D80401969093D8048093D70430
:1014600052E0252E312C0FEF1FEF84EC95E00E9407
:10147000BD02181619060CF04FC184EC95E00E94CD
:10148000D502F82EE82E1092E702E091EA02F091E0
:10149000EB02EA30F10508F04AC0EF5AF54F0C9420
:1014A000110C5B0A5B0A6B0AE00A8B0AED0AFA0A66
:1014B000120B290B570BBEEF8B1339C03092EB0286
:1014C0002092EA0210921A038093190310931803D2
:1014D000009317032CC0E4E6E81768F48091E80253
:1014E0008F5F8093E802CC24C394D12CD092EB027E
:1014F000C092EA021CC080931A031092EC0267E1CA
:1015000073E00E94F90234E0E32EF12CF092EB023A
:10151000E092EA020CC080931B0367E173E00E9433
:10152000F90223E030E03093EB022093EA022091AD
:10153000E702213099F480911B038093ED028091A2
:10154000EF029091F002009721F41092F2021092B3
:10155000F10201969093F0028093EF021092E9025B
:10156000222309F482CFC753DE4F2881C95CD140C2
:101570002A3509F07ACF89A49AA4ABA4BCA4CDA43F
:10158000DEA4EFA4F8A849A85AA86BA87CA886E80E
:1015900092E00E94A703C301B2010E946B038CE892
:1015A00092E00E94A703C501B4010E946B0382E987
:1015B00092E00E94A703C701B6010E946B0355CFBA
:1015C00080931C0367E173E00E94F90245E050E05C
:1015D0005093EB024093EA02AACF80931D0367E188
:1015E00073E00E94F90286E090E09093EB02809312
:1015F000EA029DCF80931E0367E173E00E94F90227
:1016000080911A03811107C0A8E0B0E0B093EB020B
:10161000A093EA028CCFE7E0F0E0F093EB02E093D6
:10162000EA0285CFE091EC02EE24E394EE0EE09224
:10163000EC02F0E0E15EFC4F808367E173E00E9422
:10164000F90280911A03E81272CF28E0C22ED12C41
:101650004DCFE0911E03F0E0E25FFE4F67E173E0E3
:1016600080810E94F90280911703909118039927B5
:10167000F816190679F09EEFD92EED1421F0EE241C
:10168000E394F12C43CF3092EB022092EA021092C5
:101690001A031CCF29E030E03093EB022093EA02DA
:1016A000E091EC02F0E0E15EFC4FF08240CF30913F
:1016B0001803C953DE4F3883C75CD140C853DE4F8F
:1016C0001882C85CD140C953DE4FC880D980C75C3E
:1016D000D1408C151D0479F621E02093E70241E00A
:1016E00050E05093EB024093EA02E091EC02F0E00C
:1016F000E05EFC4F808380E7E7E1F3E0DE011196D6
:1017000001900D928A95E1F7C0901E03C753DE4FFA
:10171000C882C95CD1400BCF80E090E0892B09F4EE
:101720003FCC0E94F800882309F43ACC0E940000C4
:1017300037CC84E292E09093C5058093C4058091F4
:10174000E3029091E402845C954071F4E091D70546
:10175000F091D80590818091D90580958923808367
:101760001092E4021092E3020895FC018827992761
:10177000E89421912032E9F3293010F02E30C8F39B
:101780002B3241F02D3239F4689404C00E94D30BFF
:10179000820F911D219120532A30C0F31EF49095A1
:1017A00081959F4F08957AE0979F902D879F802D78
:1017B000910D11240895A1E21A2EAA1BBB1BFD0155
:1017C0000DC0AA1FBB1FEE1FFF1FA217B307E40720
:1017D000F50720F0A21BB30BE40BF50B661F771F78
:1017E000881F991F1A9469F7609570958095909558
:1017F0009B01AC01BD01CF01089597FB072E16F4A4
:10180000009407D077FD09D00E94170C07FC05D083
:101810003EF4909581959F4F0895709561957F4F07
:101820000895EE0FFF1F0590F491E02D0994AA1B77
:10183000BB1B51E107C0AA1FBB1FA617B70710F0BB
:10184000A61BB70B881F991F5A95A9F780959095ED
:10185000BC01CD01089510E0C2E6D0E004C0FE0155
:101860000E94110C2196C336D107C9F7F894FFCF17
:101870003C00020601040100010001000100327C6D
:101880008900EDD9687700000059000000000000D1
:101890000000D69FDCA81817AA90437327F6B968F2
:1018A000EDF4DED409FEE61C1C84DDE80B99292743
:1018B000D6DF8D210F036418EFEE1EC8B70082003B
:1018C000941500347C0000001400988F0000000084
:1018D00000000000000000E7B73F360000000000F5
:1018E0000000AF669ED0380000000000000000003D
:1018F00000000000000000000000000000000000E8
:1019000000000000000000000000000000000000D7
:1019100000000000000000000000000000000000C7
:1019200000000000000000000000000000000000B7
:1019300000000000000000000000000000000000A7
:101940000000000000000000000000000000000097
:101950000000000000000000000000000000000087
:101960000000000000000000000000000000000077
:1019700000000000000000CC31AA2C532E00000013
:1019800000002E018D00BB007B01EC00CA00DE00D0
:101990000000000061028D00F602BA00BD02D5020F
:1019A00049020D0A00564D4450565F317C315F5656
:1019B0004D4450560A00564D4450525F004D41561A
:1019C0004C696E6B207374617274696E672E005679
:1019D0004D4450455F003A323A007C005F564D441A
:1019E00050450053747265616D7320726571756541
:1019F000737465642100416C743A20004C61743A40
:081A000020004C6F6E3A20003B
:107E0000112484B714BE81FFF0D085E080938100F7
:107E100082E08093C00088E18093C10086E0809377
:107E2000C20080E18093C4008EE0C9D0259A86E02C
:107E300020E33CEF91E0309385002093840096BBD3
:107E4000B09BFECF1D9AA8958150A9F7CC24DD24C4
:107E500088248394B5E0AB2EA1E19A2EF3E0BF2EE7
:107E6000A2D0813461F49FD0082FAFD0023811F036
:107E7000013811F484E001C083E08DD089C08234E0
:107E800011F484E103C0853419F485E0A6D080C0E4
:107E9000853579F488D0E82EFF2485D0082F10E0AE
:107EA000102F00270E291F29000F111F8ED06801E7
:107EB0006FC0863521F484E090D080E0DECF843638
:107EC00009F040C070D06FD0082F6DD080E0C81688
:107ED00080E7D80618F4F601B7BEE895C0E0D1E017
:107EE00062D089930C17E1F7F0E0CF16F0E7DF06D8
:107EF00018F0F601B7BEE89568D007B600FCFDCFD4
:107F0000A601A0E0B1E02C9130E011968C91119780
:107F100090E0982F8827822B932B1296FA010C0160
:107F200087BEE89511244E5F5F4FF1E0A038BF0790
:107F300051F7F601A7BEE89507B600FCFDCF97BE46
:107F4000E89526C08437B1F42ED02DD0F82E2BD052
:107F50003CD0F601EF2C8F010F5F1F4F84911BD097
:107F6000EA94F801C1F70894C11CD11CFA94CF0C13
:107F7000D11C0EC0853739F428D08EE10CD085E9AC
:107F80000AD08FE07ACF813511F488E018D01DD067
:107F900080E101D065CF982F8091C00085FFFCCF94
:107FA0009093C60008958091C00087FFFCCF809118
:107FB000C00084FD01C0A8958091C6000895E0E648
:107FC000F0E098E1908380830895EDDF803219F02E
:107FD00088E0F5DFFFCF84E1DECF1F93182FE3DFCA
:107FE0001150E9F7F2DF1F91089580E0E8DFEE27F6
:047FF000FF270994CA
:027FFE00040479
:00000001FF
